:020000040800F2
:1000000000500020511700080514000811140008C2
:10001000171400081D140008231400080000000035
:10002000000000000000000000000000291400088B
:100030003514000800000000411400084D140008A9
:1000400099170008991700089917000899170008D0
:1000500099170008991700089917000899170008C0
:1000600099170008991700089917000899170008B0
:1000700099170008991700089917000899170008A0
:100080009917000899170008991700089917000890
:100090009917000899170008991700089917000880
:1000A0009917000899170008991700089917000870
:1000B0009917000899170008991700089917000860
:1000C0009917000899170008991700089917000850
:1000D0009917000899170008991700089917000840
:1000E00099170008991700089917000800000000E8
:1000F0000000000000000000000000000000000000
:0C01000000000000000000005FF808F1A3
:1001100010B5054C237833B9044B13B10448AFF341
:1001200000800123237010BDE001002000000000CA
:100130002C71000808B5034B1BB103490348AFF30A
:10014000008008BD00000000E40100202C710008C0
:10015000034613F8012B002AFBD1181A0138704707
:1001600081F0004102E000BF83F0004330B54FEA68
:1001700041044FEA430594EA050F08BF90EA020FD5
:100180001FBF54EA000C55EA020C7FEA645C7FEA68
:10019000655C00F0E2804FEA5454D4EB5555B8BF8B
:1001A0006D420CDD2C4480EA020281EA030382EAFC
:1001B000000083EA010180EA020281EA0303362D8E
:1001C00088BF30BD11F0004F4FEA01314FF4801C61
:1001D0004CEA113102D0404261EB410113F0004F73
:1001E0004FEA03334CEA133302D0524263EB43032A
:1001F00094EA050F00F0A780A4F10104D5F1200EC8
:100200000DDB02FA0EFC22FA05F2801841F1000122
:1002100003FA0EF2801843FA05F359410EE0A5F1F6
:1002200020050EF1200E012A03FA0EFC28BF4CF027
:10023000020C43FA05F3C01851EBE37101F00045DD
:1002400007D54FF0000EDCF1000C7EEB00006EEBEA
:100250000101B1F5801F1BD3B1F5001F0CD3490874
:100260005FEA30004FEA3C0C04F101044FEA4452CB
:1002700012F5800F80F09A80BCF1004F08BF5FEA52
:10028000500C50F1000041EB045141EA050130BD32
:100290005FEA4C0C404141EB010111F4801FA4F1D5
:1002A0000104E9D191F0000F04BF01460020B1FA2A
:1002B00081F308BF2033A3F10B03B3F120020CDA62
:1002C0000C3208DD02F1140CC2F10C0201FA0CF040
:1002D00021FA02F10CE002F11402D8BFC2F1200CA5
:1002E00001FA02F120FA0CFCDCBF41EA0C0190405B
:1002F000E41AA2BF01EB0451294330BD6FEA0404A4
:100300001F3C1CDA0C340EDC04F11404C4F120028E
:1003100020FA04F001FA02F340EA030021FA04F3A0
:1003200045EA030130BDC4F10C04C4F1200220FAF7
:1003300002F001FA04F340EA0300294630BD21FA35
:1003400004F0294630BD94F0000F83F4801306BFFB
:1003500081F480110134013D4EE77FEA645C18BFEF
:100360007FEA655C29D094EA050F08BF90EA020F86
:1003700005D054EA000C04BF1946104630BD91EA7E
:10038000030F1EBF0021002030BD5FEA545C05D181
:100390004000494128BF41F0004130BD14F58004C0
:1003A0003CBF01F5801130BD01F0004545F0FE4134
:1003B00041F470014FF0000030BD7FEA645C1ABF69
:1003C000194610467FEA655C1CBF0B46024650EAA0
:1003D000013406BF52EA033591EA030F41F40021CC
:1003E00030BD00BF90F0000F04BF0021704730B552
:1003F0004FF4806404F132044FF000054FF0000127
:1004000050E700BF90F0000F04BF0021704730B5E7
:100410004FF4806404F1320410F0004548BF4042BC
:100420004FF000013EE700BF42004FEAE2014FEA11
:1004300031014FEA02701FBF12F07F4393F07F4FEC
:1004400081F06051704732F07F4208BF704793F0EF
:100450007F4F04BF41F40021704730B54FF4607402
:1004600001F0004521F000411CE700BF50EA010205
:1004700008BF704730B54FF000050AE050EA0102AE
:1004800008BF704730B511F0004502D5404261EB1E
:1004900041014FF4806404F132045FEA915C3FF45F
:1004A000D8AE4FF003025FEADC0C18BF03325FEAFC
:1004B000DC0C18BF033202EBDC02C2F1200300FAAD
:1004C00003FC20FA02F001FA03FE40EA0E0021FAD2
:1004D00002F11444BDE600BF70B54FF0FF0C4CF4C0
:1004E000E06C1CEA11541DBF1CEA135594EA0C0F72
:1004F00095EA0C0F00F0DEF82C4481EA030621EAAD
:100500004C5123EA4C5350EA013518BF52EA0335E7
:1005100041F4801143F4801338D0A0FB02CE4FF099
:100520000005E1FB02E506F00042E0FB03E54FF0C9
:100530000006E1FB03569CF0000F18BF4EF0010EC1
:10054000A4F1FF04B6F5007F64F5407404D25FEABD
:100550004E0E6D4146EB060642EAC62141EA555170
:100560004FEAC52040EA5E504FEACE2EB4F1FD0CB2
:1005700088BFBCF5E06F1ED8BEF1004F08BF5FEA30
:10058000500E50F1000041EB045170BD06F00046E2
:1005900046EA010140EA020081EA0301B4EB5C048F
:1005A000C2BFD4EB0C0541EA045170BD41F4801187
:1005B0004FF0000E013C00F3AB8014F1360FDEBFAC
:1005C000002001F0004170BDC4F10004203C35DA88
:1005D0000C341BDC04F11404C4F1200500FA05F30B
:1005E00020FA04F001FA05F240EA020001F00042AC
:1005F00021F0004110EBD37021FA04F642EB060122
:100600005EEA430E08BF20EAD37070BDC4F10C044B
:10061000C4F1200500FA04F320FA05F001FA04F20F
:1006200040EA020001F0004110EBD37041F10001FB
:100630005EEA430E08BF20EAD37070BDC4F1200506
:1006400000FA05F24EEA020E20FA04F301FA05F26E
:1006500043EA020321FA04F001F0004121FA04F216
:1006600020EA020000EBD3705EEA430E08BF20EAE6
:10067000D37070BD94F0000F0FD101F00046400020
:1006800041EB010111F4801F08BF013CF7D041EAA2
:10069000060195F0000F18BF704703F000465200A6
:1006A00043EB030313F4801F08BF013DF7D043EA77
:1006B0000603704794EA0C0F0CEA135518BF95EA2D
:1006C0000C0F0CD050EA410618BF52EA4306D1D1B4
:1006D00081EA030101F000414FF0000070BD50EAD3
:1006E000410606BF1046194652EA430619D094EA5D
:1006F0000C0F02D150EA013613D195EA0C0F05D147
:1007000052EA03361CBF104619460AD181EA03019A
:1007100001F0004141F0FE4141F470014FF0000052
:1007200070BD41F0FE4141F4780170BD70B54FF0ED
:10073000FF0C4CF4E06C1CEA11541DBF1CEA13556D
:1007400094EA0C0F95EA0C0F00F0A7F8A4EB05044F
:1007500081EA030E52EA03354FEA013100F0888046
:100760004FEA03334FF0805545EA131343EA12630F
:100770004FEA022245EA111545EA10654FEA0026C4
:100780000EF000419D4208BF964244F1FD0404F57D
:10079000407402D25B084FEA3202B61A65EB0305D9
:1007A0005B084FEA32024FF480104FF4002CB6EB96
:1007B000020E75EB030E22BFB61A754640EA0C0016
:1007C0005B084FEA3202B6EB020E75EB030E22BF56
:1007D000B61A754640EA5C005B084FEA3202B6EB97
:1007E000020E75EB030E22BFB61A754640EA9C0056
:1007F0005B084FEA3202B6EB020E75EB030E22BF26
:10080000B61A754640EADC0055EA060E18D04FEAE3
:10081000051545EA16754FEA06164FEAC30343EA83
:1008200052734FEAC2025FEA1C1CC0D111F4801F50
:100830000BD141EA00014FF000004FF0004CB6E749
:1008400011F4801F04BF01430020B4F1FD0C88BFE8
:10085000BCF5E06F3FF6AFAEB5EB030C04BFB6EBF3
:10086000020C5FEA500C50F1000041EB045170BDE6
:100870000EF0004E4EEA113114EB5C04C2BFD4EB13
:100880000C0541EA045170BD41F480114FF0000E97
:10089000013C90E645EA060E8DE60CEA135594EA13
:1008A0000C0F08BF95EA0C0F3FF43BAF94EA0C0F16
:1008B0000AD150EA01347FF434AF95EA0C0F7FF48B
:1008C00025AF104619462CE795EA0C0F06D152EADF
:1008D00003353FF4FDAE1046194622E750EA4106C3
:1008E00018BF52EA43067FF4C5AE50EA41047FF4D4
:1008F0000DAF52EA43057FF4EBAE12E74FF0FF3C39
:1009000006E000BF4FF0010C02E000BF4FF0010C09
:100910004DF804CD4FEA410C7FEA6C5C4FEA430C82
:1009200018BF7FEA6C5C1BD001B050EA410C0CBFD1
:1009300052EA430C91EA030F02BF90EA020F002033
:10094000704710F1000F91EA030F58BF994208BF9A
:1009500090422CBFD8176FEAE37040F00100704757
:100960004FEA410C7FEA6C5C02D150EA013C07D1AE
:100970004FEA430C7FEA6C5CD6D152EA033CD3D0F9
:100980005DF8040B704700BF8446104662468C46F3
:100990001946634600E000BF01B5FFF7B7FF002826
:1009A00048BF10F1000F01BD4DF808EDFFF7F4FF4F
:1009B0000CBF012000205DF808FB00BF4DF808EDDA
:1009C000FFF7EAFF34BF012000205DF808FB00BFFD
:1009D0004DF808EDFFF7E0FF94BF012000205DF81F
:1009E00008FB00BF4DF808EDFFF7CEFF94BF0120D4
:1009F00000205DF808FB00BF4DF808EDFFF7C4FFCD
:100A000034BF012000205DF808FB00BF4FEA410C15
:100A10007FEA6C5C02D150EA013C0AD14FEA430CF8
:100A20007FEA6C5C02D152EA033C02D14FF0000035
:100A300070474FF0010070474FEA410212F5001273
:100A400015D211D56FF47873B3EB625212D94FEA15
:100A5000C12343F0004343EA505311F0004F23FAFF
:100A600002F018BF404270474FF00000704750EA54
:100A7000013005D111F0004008BF6FF00040704711
:100A80004FF00000704700BF4A0011D212F500126B
:100A900011D20DD56FF47873B3EB62520ED44FEAD6
:100AA000C12343F0004343EA505323FA02F0704756
:100AB0004FF00000704750EA013002D14FF0FF3094
:100AC00070474FF0000070474FEA4102B2F1E04337
:100AD00024BFB3F5001CDCF1FE5C0DD901F0004C25
:100AE0004FEAC0024CEA5070B2F1004F40EB830075
:100AF00008BF20F00100704711F0804F21D113F1A1
:100B00003872BCBF01F00040704741F480114FEAD9
:100B10005252C2F11802C2F1200C10FA0CF320FA62
:100B200002F018BF40F001004FEAC1234FEAD3237F
:100B300003FA0CFC40EA0C0023FA02F34FEA4303E9
:100B4000CCE77FEA625307D150EA01331EBF4FF072
:100B5000FE4040F44000704701F0004040F0FE408D
:100B600040F40000704700BF4FF0FF3C06E000BFBC
:100B70004FF0010C02E000BF4FF0010C4DF804CD26
:100B80004FEA40024FEA41037FEA226C18BF7FEA36
:100B9000236C11D001B052EA530C18BF90EA010F38
:100BA00058BFB2EB030088BFC81738BF6FEAE170C7
:100BB00018BF40F0010070477FEA226C02D15FEA63
:100BC000402C05D17FEA236CE4D15FEA412CE1D0CF
:100BD0005DF8040B704700BF844608466146FFE796
:100BE0000FB5FFF7C9FF002848BF10F1000F0FBD78
:100BF0004DF808EDFFF7F4FF0CBF012000205DF871
:100C000008FB00BF4DF808EDFFF7EAFF34BF0120F5
:100C100000205DF808FB00BF4DF808EDFFF7E0FF8E
:100C200094BF012000205DF808FB00BF4DF808EDDF
:100C3000FFF7D2FF94BF012000205DF808FB00BF42
:100C40004DF808EDFFF7C8FF34BF012000205DF824
:100C500008FB00BF80B485B000AF144B9B69134AFA
:100C600043F020039361114B9B6903F02003FB6069
:100C7000FB680E4B9B690D4A43F0040393610B4BD9
:100C80009B6903F00403BB60BB68084B9B69074A80
:100C900043F008039361054B9B6903F008037B60F5
:100CA0007B6800BF1437BD4680BC7047001002400F
:100CB00080B500AF134B144A1A60124B134A5A60A6
:100CC000104B4FF480429A600E4B0022DA600D4BBD
:100CD0004FF480421A610B4B00225A61094B0022EB
:100CE0009A61084B0022DA61064B00221A6205481D
:100CF00001F016F80346002B01D000F0C0F800BF49
:100D000080BD00BF0802002000580040801A060085
:100D100080B588B000AF786007F1100300221A6038
:100D20005A609A60DA607B681B68164A934224D145
:100D3000154B9B69144A43F008039361124B9B695E
:100D400003F00803FB60FB684FF440633B61122330
:100D50007B610323FB6107F1100319460B4800F088
:100D600085FE094BDB69084A43F48003D361064BD7
:100D7000DB6903F48003BB60BB6800BF2037BD465E
:100D800080BD00BF0058004000100240000C014030
:100D900080B500AF00F002FD00F02CF8FFF75AFF1D
:100DA00000F0BAFB00F05EFCFFF782FF00F082FA71
:100DB00010230C4A0021002000F09EF910230A4A5B
:100DC0000221002000F098F91023084A0421002095
:100DD00000F062F91023064A0621002000F08CF989
:100DE000E6E700BF71ACAB3F048D593E0000002028
:100DF000ECC0464180B590B000AF07F1180328223F
:100E00000021184602F04CFC3B1D00221A605A607B
:100E10009A60DA601A610123BB614FF48033FB6191
:100E200000233B620123BB6202237B634FF48033C8
:100E3000BB634FF4E013FB6307F11803184601F09E
:100E4000A1FB0346002B01D000F019F80F237B60B3
:100E50000223BB600023FB604FF480633B610023EF
:100E60007B613B1D0221184601F00CFE0346002B5E
:100E700001D000F004F800BF4037BD4680BD80B40B
:100E800000AF00BFBD4680BC7047000080B586B093
:100E900004AF03460A46FB711346BB71BB799AB295
:100EA0006423029301230193FB1D00930123782106
:100EB000034801F05DF800BF0837BD4680BD00BFA4
:100EC0000802002080B582B000AF03460A46FB71DD
:100ED0001346BB71BB79002B05D0FB794021184626
:100EE000FFF7D4FF04E0FB7900211846FFF7CEFF9F
:100EF00000BF0837BD4680BD80B582B000AF034655
:100F00000A46FB711346BB71BB79503BDBB2002133
:100F10001846FFF7D7FFFB791B09DBB243F010033C
:100F2000DBB200211846FFF7CDFFFB7903F00F037A
:100F3000DBB200211846FFF7C5FF00BF0837BD46EA
:100F400080BD80B582B000AF0023FB711FE0FB794C
:100F5000503BDBB200211846FFF7B4FF0021002010
:100F6000FFF7B0FF00211020FFF7ACFF0023BB719B
:100F700006E001210020FFF7A5FFBB790133BB711B
:100F800097F90630002BF4DAFB790133FB71FB791A
:100F9000072BDCD900BF0837BD4680BD90B585B0B2
:100FA00000AF0446084611461A462346FB71034625
:100FB000BB710B467B7113463B710023BB7300234F
:100FC000FB737B79203BBB7397F90730002B04DA66
:100FD0000023FB71BB790233BB713B79102B35D1F8
:100FE000BA79FB7911461846FFF786FF0023FB7399
:100FF0000CE0BB7B1A01FB7B1344254AD35C012127
:101000001846FFF75FFFFB7B0133FB73FB7B072B6E
:10101000EFD9BB790133DAB2FB7911461846FFF7F5
:101020006BFF0023FB730DE0BB7B1A01FB7B1344BA
:101030000833174AD35C01211846FFF743FFFB7BB7
:101040000133FB73FB7B072BEED91CE0BA79FB79EC
:1010500011461846FFF750FF0023FB7310E0BA7BE0
:10106000F97B0C4813465B0013445B0003440B44BC
:101070001B7801211846FFF725FFFB7B0133FB732B
:10108000FB7B052BEBD900BF1437BD4690BD00BFDD
:10109000947300086C71000880B584B000AF3A60AA
:1010A0001A460346FB710B46BB7113467B71002346
:1010B000FB7316E0FB7B3A6813441A787B79B979A5
:1010C000F879FFF76BFFFB790833FB71FB79782B1D
:1010D00004D90023FB71BB790233BB71FB7B013365
:1010E000FB73FB7B3A6813441B78002BE2D100BFF3
:1010F0001037BD4680BD0000B0B586B000AF3A6085
:101100001A460346FB710B46BB7113467B710023E5
:10111000FB7507F10C0300221A605A601A816149BD
:101120003868FFF76FFD0346002B36D03868FFF7AD
:101130007BF903460C4607F10C001A4623465A4930
:1011400003F0EAF87B79B979F8792022FFF726FFD6
:101150001AE0FB790833D8B2FB7D07F1180213447B
:1011600013F80C2C7B79B979FFF718FFFB7908335A
:10117000FB71FB79782B04D90023FB71BB79023317
:10118000BB71FB7D0133FB75FB7D07F11802134436
:1011900013F80C3C002BDCD180E001231C464149B4
:1011A0003868FFF74DFD0346002B01D100231C4694
:1011B000E4B201231D463D493868FFF723FD03468D
:1011C000002B01D100231D46EBB22340DBB2002BE4
:1011D0002ED03868FFF728F903460C4607F10C00BB
:1011E0001A462346304903F097F818E0FB7D07F1D3
:1011F0001802134413F80C2C7B79B979F879FFF7AE
:10120000CDFEFB790833FB71FB79782B04D90023E1
:10121000FB71BB790233BB71FB7D0133FB75FB7D39
:1012200007F11802134413F80C3C002BDED135E013
:101230001E493868FFF704FD0346002B00D12DE05E
:101240003868FFF7F1F803460C4607F10C001A4620
:101250002346174903F060F818E0FB7D07F11802F8
:10126000134413F80C2C7B79B979F879FFF796FEC3
:10127000FB790833FB71FB79782B04D90023FB71D0
:10128000BB790233BB71FB7D0133FB75FB7D07F13D
:101290001802134413F80C3C002BDED100BF1837A2
:1012A000BD46B0BD00002041487100080000C842A2
:1012B0005071000880B500AF642000F0D1FA002121
:1012C000AE20FFF7FFFD00210020FFF7FBFD00210E
:1012D0001020FFF7F7FD00214020FFF7F3FD00216C
:1012E000B020FFF7EFFD00218120FFF7EBFD00218B
:1012F000FF20FFF7E7FD0021A120FFF7E3FD00211C
:10130000A620FFF7DFFD0021A820FFF7DBFD00216D
:101310003F20FFF7D7FD0021C820FFF7D3FD0021B4
:10132000D320FFF7CFFD00210020FFF7CBFD0021E8
:10133000D520FFF7C7FD00218020FFF7C3FD002166
:10134000D820FFF7BFFD00210520FFF7BBFD0021DE
:10135000D920FFF7B7FD0021F120FFF7B3FD0021F1
:10136000DA20FFF7AFFD00211220FFF7ABFD0021CF
:10137000DB20FFF7A7FD00213020FFF7A3FD0021B0
:101380008D20FFF79FFD00211420FFF79BFD00211A
:10139000AF20FFF797FDFFF7D4FD00BF80BD000031
:1013A00080B485B000AF154B9B69144A43F001032C
:1013B0009361124B9B6903F00103BB60BB680F4B49
:1013C000DB690E4A43F08053D3610C4BDB6903F0B9
:1013D00080537B607B680A4B5B68FB60FB6823F093
:1013E000E063FB60FB6843F00073FB60044AFB684A
:1013F000536000BF1437BD4680BC704700100240E8
:101400000000014080B400AF00BFBD4680BC704703
:1014100080B400AFFEE780B400AFFEE780B400AF59
:10142000FEE780B400AFFEE780B400AF00BFBD466A
:1014300080BC704780B400AF00BFBD4680BC704721
:1014400080B400AF00BFBD4680BC704780B500AF20
:1014500000F0EAF900BF80BD80B584B000AF7860CD
:10146000114B1B68002B02D10F4B104A1A600E4B18
:101470001B68FB600C4B1A687B6813446A469342F6
:1014800007D902F0E3F802460C2313604FF0FF3354
:1014900006E0054B1A687B681344034A1360FB6837
:1014A00018461037BD4680BDFC010020E802002030
:1014B00080B400AF154B1B68144A43F0010313605E
:1014C000124B5A681149124B13404B600F4B1B686B
:1014D0000E4A23F0847323F4803313600B4B1B6894
:1014E0000A4A23F480231360084B5B68074A23F4FD
:1014F000FE035360054B4FF41F029A60054B4FF0FB
:1015000000629A6000BFBD4680BC70470010024078
:101510000000FFF800ED00E080B58AB000AF07F1F1
:10152000200300221A605A603B1D00221A605A6094
:101530009A60DA601A615A619A61234B4FF08042D7
:101540001A60214B40F2CF225A601F4B00229A6052
:101550001D4B42F20F72DA601B4B00221A611A4BCC
:1015600000229A61184801F029FC0346002B01D0A3
:10157000FFF785FC00233B6200237B6207F1200319
:101580001946114801F0F6FE0346002B01D0FFF783
:1015900076FC70237B6041F28733BB600023FB60E5
:1015A00000237B613B1D00221946074801F032FCF5
:1015B0000346002B01D0FFF762FC034800F022F83D
:1015C00000BF2837BD4680BD5C02002080B485B0D6
:1015D00000AF78607B681B68B3F1804F0BD1084B7C
:1015E000DB69074A43F00103D361054BDB6903F074
:1015F0000103FB60FB6800BF1437BD4680BC704729
:101600000010024080B588B000AF786007F1100389
:1016100000221A605A609A60DA607B681B68B3F136
:10162000804F17D10D4B9B690C4A43F00403936123
:101630000A4B9B6903F00403FB60FB6801233B61D9
:1016400002237B610223FB6107F110031946044862
:1016500000F00CFA00BF2037BD4680BD00100240EC
:101660000008014080B500AF114B124A1A60104BC0
:101670004FF4E1325A600E4B00229A600C4B00226C
:10168000DA600B4B00221A61094B0C225A61084B9D
:1016900000229A61064B0022DA61054801F0AEFE95
:1016A0000346002B01D0FFF7EAFB00BF80BD00BF5F
:1016B0009C0200200038014080B588B000AF7860FF
:1016C00007F1100300221A605A609A60DA607B68A2
:1016D0001B681C4A934231D11B4B9B691A4A43F445
:1016E00080439361184B9B6903F48043FB60FB6864
:1016F000154B9B69144A43F004039361124B9B6999
:1017000003F00403BB60BB684FF400733B6102232A
:101710007B610323FB6107F1100319460B4800F0BE
:10172000A5F94FF480633B6100237B610023BB611B
:1017300007F110031946054800F098F900BF20375B
:10174000BD4680BD00380140001002400008014045
:10175000002103E00B4B5B58435004310A480B4B0C
:1017600042189A42F6D30A4A02E0002342F8043BA8
:10177000084B9A42F9D3FFF79BFE01F06DFFFFF78C
:1017800007FB7047587C000800000020E0010020A3
:10179000E0010020E4020020FEE7000080B500AF79
:1017A000084B1B68074A43F010031360032000F046
:1017B00029F9002000F008F8FFF7F2FD0023184691
:1017C00080BD00BF0020024080B582B000AF7860CD
:1017D000124B1A68124B1B7819464FF47A73B3FBFD
:1017E000F1F3B2FBF3F3184600F033F90346002B94
:1017F00001D001230EE07B680F2B0AD80022796804
:101800004FF0FF3000F009F9064A7B6813600023AF
:1018100000E0012318460837BD4680BD04000020C3
:101820000C0000200800002080B400AF054B1B789E
:101830001A46054B1B681344034A136000BFBD469C
:1018400080BC70470C000020DC02002080B400AF98
:10185000024B1B681846BD4680BC7047DC02002066
:1018600080B584B000AF7860FFF7F0FFB8607B68A8
:10187000FB60FB68B3F1FF3F05D0094B1B781A46AC
:10188000FB681344FB6000BFFFF7E0FF0246BB6844
:10189000D31AFA689A42F7D800BF1037BD4680BD08
:1018A0000C00002080B485B000AF78607B6803F046
:1018B0000703FB600C4BDB68BB60BA684FF6FF03A5
:1018C0001340BB60FB681A02BB68134343F0BF635D
:1018D00043F40033BB60044ABB68D36000BF1437D5
:1018E000BD4680BC704700BF00ED00E080B400AF93
:1018F000044BDB681B0A03F007031846BD4680BC97
:10190000704700BF00ED00E080B483B000AF034635
:101910003960FB7197F90730002B0ADB3B68DAB2BC
:101920000C4997F907301201D2B20B4483F8002317
:101930000AE03B68DAB20849FB7903F00F03043B85
:101940001201D2B20B441A7600BF0C37BD4680BCE0
:10195000704700BF00E100E000ED00E080B489B016
:1019600000AFF860B9607A60FB6803F00703FB61C1
:10197000FB69C3F10703042B28BF0423BB61FB6988
:101980000433062B02D9FB69033B00E000237B6193
:101990004FF0FF32BB6902FA03F3DA43BB681A4027
:1019A0007B699A404FF0FF317B6901FA03F3D94319
:1019B0007B680B40134318462437BD4680BC7047F4
:1019C00080B582B000AF78607B68013BB3F1807F67
:1019D00001D301230FE00A4A7B68013B53600F21CA
:1019E0004FF0FF30FFF790FF054B00229A60044B49
:1019F00007221A60002318460837BD4680BD00BF85
:101A000010E000E080B582B000AF78607868FFF742
:101A100049FF00BF0837BD4680BD80B586B000AF26
:101A20000346B9607A60FB7300237B61FFF75EFFBA
:101A300078617A68B9687869FFF790FF024697F98C
:101A40000F3011461846FFF75FFF00BF1837BD463D
:101A500080BD80B582B000AF78607868FFF7B0FFD6
:101A6000034618460837BD4680BD000080B48BB0E1
:101A700000AF7860396000237B6200233B6227E17E
:101A800001227B6A02FA03F3FB613B681B68FA6977
:101A90001340BB61BA69FB699A4240F016813B680A
:101AA0005B68122B34D0122B0DD8022B2BD0022BBB
:101AB00004D8002B31D0012B1CD048E0032B43D09D
:101AC000112B1BD043E0894A934226D0874A934288
:101AD00006D8874A934220D0864A93421DD036E0EA
:101AE000854A934219D0854A934216D0844A93423C
:101AF00013D02CE03B68DB683B6228E03B68DB6886
:101B000004333B6223E03B68DB6808333B621EE042
:101B10003B68DB680C333B6219E03B689B68002B39
:101B200002D104233B6212E03B689B68012B05D184
:101B300008233B627B68FA691A6108E008233B626C
:101B40007B68FA695A6102E000233B6200BFBB690F
:101B5000FF2B01D87B6801E07B6804337B61BB69A4
:101B6000FF2B02D87B6A9B0002E07B6A083B9B004C
:101B70003B617B691A680F213B6901FA03F3DB4380
:101B80001A40396A3B6901FA03F31A437B691A6008
:101B90003B685B6803F08053002B00F09680594B44
:101BA0009B69584A43F001039361564B9B6903F0CC
:101BB0000103BB60BB68544A7B6A9B08023352F83E
:101BC0002330FB607B6A03F003039B000F2202FAC1
:101BD00003F3DB43FA681340FB607B684B4A934294
:101BE00013D07B684A4A93420DD07B68494A93429E
:101BF00007D07B68484A934201D1032306E00423BF
:101C000004E0022302E0012300E000237A6A02F0EC
:101C1000030292009340FA681343FB603A497B6ADF
:101C20009B080233FA6841F823203B685B6803F4A1
:101C30008033002B06D0394B1A683849BB691343EF
:101C40000B6006E0354B1A68BB69DB433349134030
:101C50000B603B685B6803F40033002B06D02F4B0E
:101C60005A682E49BB6913434B6006E02B4B5A68F8
:101C7000BB69DB43294913404B603B685B6803F455
:101C80008013002B06D0254B9A682449BB69134367
:101C90008B6006E0214B9A68BB69DB431F49134008
:101CA0008B603B685B6803F40013002B06D01B4B72
:101CB000DA681A49BB691343CB6006E0174BDA6850
:101CC000BB69DB4315491340CB607B6A01337B6200
:101CD0003B681A687B6A22FA03F3002B7FF4D0AECC
:101CE00000BF2C37BD4680BC704700BF00002110EC
:101CF000000011100000121000003110000032101E
:101D000000002210001002400000014000080140C5
:101D1000000C01400010014000140140000401408B
:101D200080B584B000AF78607B68002B01D10123BF
:101D30000FE17B6893F83D30DBB2002B06D17B6866
:101D4000002283F83C207868FEF7E2FF7B682422BB
:101D500083F83D207B681B681A687B681B6822F04B
:101D600001021A6000F0E4FFF8607B685B687B4A60
:101D7000934207D8FB687A4A934294BF0123002319
:101D8000DBB206E0FB68774A934294BF012300234D
:101D9000DBB2002B01D00123DBE0FB68724AA2FB1F
:101DA00003239B0CBB607B681B685B6823F03F01CF
:101DB0007B681B68BA680A435A607B681B681B6AA9
:101DC00023F03F017B685B68644A934202D8BB689A
:101DD000013309E0BB684FF4967202FB03F3634AD8
:101DE000A2FB03239B0901337A6812680B43136239
:101DF0007B681B68DB6923F44F4222F0FF027B689B
:101E00005B6856498B420DD8FB68591E7B685B683E
:101E10005B00B1FBF3F30133C3F30B03042B38BFB7
:101E200004234FE07B689B68002B11D1FB68581E90
:101E30007B6859680B465B000B44B0FBF3F301333E
:101E4000C3F30B03002B0CBF01230023DBB212E012
:101E5000FB68581E7B6859680B469B000B44990031
:101E60000B44B0FBF3F30133C3F30B03002B0CBFA4
:101E700001230023DBB2002B01D0012322E07B6889
:101E80009B68002B0ED1FB68581E7B6859680B4677
:101E90005B000B44B0FBF3F30133C3F30B0343F4D8
:101EA00000430FE0FB68581E7B6859680B469B0097
:101EB0000B4499000B44B0FBF3F30133C3F30B0362
:101EC00043F44043796809681343CB617B681B681E
:101ED0001B6823F0C0017B68DA697B681B6A1A43C0
:101EE0007B681B680A431A607B681B689B6823F445
:101EF000034323F0FF037A6811697A68D2681143BB
:101F00007A6812680B4393607B681B68DB6823F078
:101F1000FF017B685A697B689B691A437B681B6871
:101F20000A43DA607B681B681A687B681B6842F0AA
:101F300001021A607B6800221A647B68202283F801
:101F40003D207B6800221A637B68002283F83E20D4
:101F5000002318461037BD4680BD00BFA086010093
:101F60007F841E00FF083D0083DE1B43D34D6210BB
:101F700080B588B002AFF860084611461A4603469D
:101F80007B810B463B811346FB80FFF75FFC78614A
:101F9000FB6893F83D30DBB2202B40F0D9807B69A1
:101FA0000093192301226D49F86800F065F9034692
:101FB000002B01D00223CCE0FB6893F83C30012BCE
:101FC00001D10223C5E0FB68012283F83C20FB68B5
:101FD0001B681B6803F00103012B07D0FB681B681B
:101FE0001A68FB681B6842F001021A60FB681B68F4
:101FF0001A68FB681B6822F400621A60FB682122E1
:1020000083F83D20FB68402283F83E20FB680022D5
:102010001A64FB683A6A5A62FB68BA8C5A85FB6894
:102020005B8D9AB2FB681A85FB684D4ADA62F888C4
:102030003A8979897B690193BB6A00930346F86802
:1020400000F090F80346002B52D0012381E07A691A
:10205000B96AF86800F0E6F90346002B0DD0FB687A
:102060001B6C042B07D1FB681B681A68FB681B6894
:1020700042F400721A6001236BE0FB685B6A1A7815
:10208000FB681B681A61FB685B6A5A1CFB685A6232
:10209000FB681B8D013B9AB2FB681A85FB685B8D60
:1020A0009BB2013B9AB2FB685A85FB681B685B696F
:1020B00003F00403042B1BD1FB681B8D002B17D0EE
:1020C000FB685B6A1A78FB681B681A61FB685B6ACD
:1020D0005A1CFB685A62FB681B8D013B9AB2FB6875
:1020E0001A85FB685B8D9BB2013B9AB2FB685A85EF
:1020F000FB681B8D002BAAD17A69B96AF86800F0D9
:10210000D2F90346002B0DD0FB681B6C042B07D1C2
:10211000FB681B681A68FB681B6842F400721A604F
:10212000012316E0FB681B681A68FB681B6842F411
:1021300000721A60FB68202283F83D20FB680022B1
:1021400083F83E20FB68002283F83C20002300E057
:10215000022318461837BD4680BD00BF020010009C
:102160000000FFFF80B588B002AFF8600846114656
:102170001A4603467B810B463B811346FB80FB6876
:102180001B681A68FB681B6842F480721A607B6ADD
:1021900000933B6A00224FF00111F86800F06CF8E0
:1021A0000346002B01D001235FE07B89DBB21A4696
:1021B000FB681B6802F0FE021A617B6A3A6A2D49CD
:1021C000F86800F0B0F80346002B01D001234CE082
:1021D00000237B61FB681B685B697B61FB681B6894
:1021E0009B697B617B697A6A396AF86800F01AF941
:1021F0000346002B0DD0FB681B6C042B07D1FB683A
:102200001B681A68FB681B6842F400721A6001239D
:102210002BE0FB88012B05D13B89DAB2FB681B68F8
:102220001A6121E03B891B0A9BB2DAB2FB681B688A
:102230001A617A6A396AF86800F0F4F80346002BEC
:102240000DD0FB681B6C042B07D1FB681B681A6858
:10225000FB681B6842F400721A60012305E03B89A9
:10226000DAB2FB681B681A61002318461837BD46AE
:1022700080BD00BF0200010080B584B000AFF860EF
:10228000B9603B601346FB7125E03B68B3F1FF3F4B
:1022900021D0FFF7DBFA0246BB69D31A3A689A42AB
:1022A00002D33B68002B16D1FB6800221A63FB683F
:1022B000202283F83D20FB68002283F83E20FB6843
:1022C0001B6C43F02002FB681A64FB68002283F851
:1022D0003C20012323E0BB681B0CDBB2012B0DD19A
:1022E000FB681B685B69DA43BB6813409BB2002B39
:1022F0000CBF01230023DBB21A460CE0FB681B680D
:102300009B69DA43BB6813409BB2002B0CBF0123CF
:102310000023DBB21A46FB799A42B6D00023184656
:102320001037BD4680BD80B584B000AFF860B9609D
:102330007A603B6051E0FB681B685B6903F4806373
:10234000B3F5806F23D1FB681B681A68FB681B68B4
:1023500042F400721A60FB681B686FF480625A6175
:10236000FB6800221A63FB68202283F83D20FB688B
:10237000002283F83E20FB681B6C43F00402FB68DC
:102380001A64FB68002283F83C20012346E07B6846
:10239000B3F1FF3F21D0FFF759FA02463B68D31A49
:1023A0007A689A4202D37B68002B16D1FB68002220
:1023B0001A63FB68202283F83D20FB68002283F823
:1023C0003E20FB681B6C43F02002FB681A64FB682C
:1023D000002283F83C20012320E0BB681B0CDBB209
:1023E000012B0CD1FB681B685B69DA43BB681340A7
:1023F0009BB2002B14BF01230023DBB20BE0FB6870
:102400001B689B69DA43BB6813409BB2002B14BF67
:1024100001230023DBB2002B8DD100231846103797
:10242000BD4680BD80B584B000AFF860B9607A6009
:102430002DE0F86800F078F80346002B01D0012366
:102440002DE0BB68B3F1FF3F21D0FFF7FFF9024653
:102450007B68D31ABA689A4202D3BB68002B16D1A4
:10246000FB6800221A63FB68202283F83D20FB688A
:10247000002283F83E20FB681B6C43F02002FB68BF
:102480001A64FB68002283F83C20012307E0FB6804
:102490001B685B6903F08003802BCAD100231846B8
:1024A0001037BD4680BD80B584B000AFF860B9601C
:1024B0007A602DE0F86800F037F80346002B01D071
:1024C00001232DE0BB68B3F1FF3F21D0FFF7BEF938
:1024D00002467B68D31ABA689A4202D3BB68002BC3
:1024E00016D1FB6800221A63FB68202283F83D2086
:1024F000FB68002283F83E20FB681B6C43F020023F
:10250000FB681A64FB68002283F83C20012307E083
:10251000FB681B685B6903F00403042BCAD100232A
:1025200018461037BD4680BD80B483B000AF7860D8
:102530007B681B685B6903F48063B3F5806F1BD114
:102540007B681B686FF480625A617B6800221A63A3
:102550007B68202283F83D207B68002283F83E20A0
:102560007B681B6C43F004027B681A647B68002262
:1025700083F83C20012300E0002318460C37BD46B9
:1025800080BC704780B586B000AF78607B68002B58
:1025900001D101236CE27B681B6803F00103002B6F
:1025A00000F08780924B5B6803F00C03042B0CD087
:1025B0008F4B5B6803F00C03082B12D18C4B5B68CC
:1025C00003F48033B3F5803F0BD1894B1B6803F4D0
:1025D0000033002B6CD07B685B68002B68D1012333
:1025E00046E27B685B68B3F5803F06D1804B1B6891
:1025F0007F4A43F4803313602EE07B685B68002BD6
:102600000CD17B4B1B687A4A23F480331360784BE0
:102610001B68774A23F4802313601DE07B685B68A6
:10262000B3F5A02F0CD1724B1B68714A43F4802381
:1026300013606F4B1B686E4A43F4803313600BE0EA
:102640006B4B1B686A4A23F480331360684B1B682A
:10265000674A23F4802313607B685B68002B13D0E8
:10266000FFF7F4F8386108E0FFF7F0F802463B693D
:10267000D31A642B01D90323FAE15D4B1B6803F4E1
:102680000033002BF0D014E0FFF7E0F8386108E0E9
:10269000FFF7DCF802463B69D31A642B01D9032308
:1026A000E6E1534B1B6803F40033002BF0D100E04C
:1026B00000BF7B681B6803F00203002B63D04C4B08
:1026C0005B6803F00C03002B0BD0494B5B6803F0F5
:1026D0000C03082B1CD1464B5B6803F48033002BA2
:1026E00016D1434B1B6803F00203002B05D07B6817
:1026F0001B69012B01D00123BAE13D4B1B6823F07C
:10270000F8027B685B69DB00394913430B603AE0F0
:102710007B681B69002B20D0364B01221A60FFF723
:1027200095F8386108E0FFF791F802463B69D31A43
:10273000022B01D903239BE12D4B1B6803F00203FD
:10274000002BF0D02A4B1B6823F0F8027B685B69F2
:10275000DB00274913430B6015E0264B00221A606B
:10276000FFF774F8386108E0FFF770F802463B693C
:10277000D31A022B01D903237AE11D4B1B6803F006
:102780000203002BF0D17B681B6803F00803002BC9
:102790003AD07B689B69002B19D0174B01221A6035
:1027A000FFF754F8386108E0FFF750F802463B693C
:1027B000D31A022B01D903235AE10D4B5B6A03F0B4
:1027C0000203002BF0D0012000F0DAFA1CE00A4BE3
:1027D00000221A60FFF73AF838610FE0FFF736F889
:1027E00002463B69D31A022B08D9032340E100BFFC
:1027F0000010024000004242800442429E4B5B6A4D
:1028000003F00203002BE9D17B681B6803F004038B
:10281000002B00F0A6800023FB75974BDB6903F0CB
:102820008053002B0DD1944BDB69934A43F08053C6
:10283000D361914BDB6903F08053BB60BB6801231C
:10284000FB758E4B1B6803F48073002B18D18B4BE8
:102850001B688A4A43F480731360FEF7F7FF386100
:1028600008E0FEF7F3FF02463B69D31A642B01D957
:102870000323FDE0814B1B6803F48073002BF0D031
:102880007B68DB68012B06D17B4B1B6A7A4A43F0DD
:10289000010313622DE07B68DB68002B0CD1764BC3
:1028A0001B6A754A23F001031362734B1B6A724A59
:1028B00023F0040313621CE07B68DB68052B0CD15A
:1028C0006D4B1B6A6C4A43F0040313626A4B1B6A2C
:1028D000694A43F0010313620BE0674B1B6A664AC7
:1028E00023F001031362644B1B6A634A23F0040361
:1028F00013627B68DB68002B15D0FEF7A7FF3861F9
:102900000AE0FEF7A3FF02463B69D31A41F2883280
:10291000934201D90323ABE0574B1B6A03F0020338
:10292000002BEED014E0FEF791FF38610AE0FEF7CD
:102930008DFF02463B69D31A41F28832934201D996
:10294000032395E04C4B1B6A03F00203002BEED1EE
:10295000FB7D012B05D1484BDB69474A23F08053AF
:10296000D3617B68DB69002B00F08180424B5B68A0
:1029700003F00C03082B61D07B68DB69022B46D186
:102980003F4B00221A60FEF761FF386108E0FEF756
:102990005DFF02463B69D31A022B01D9032367E08E
:1029A000354B1B6803F00073002BF0D17B681B6A6A
:1029B000B3F5803F08D1304B5B6823F400327B686D
:1029C0009B682D4913434B602B4B5B6823F47412B7
:1029D0007B68196A7B685B6A0B43274913434B602A
:1029E000274B01221A60FEF731FF386108E0FEF73D
:1029F0002DFF02463B69D31A022B01D9032337E08E
:102A00001D4B1B6803F00073002BF0D02FE01C4B14
:102A100000221A60FEF71AFF386108E0FEF716FF81
:102A200002463B69D31A022B01D9032320E0124B43
:102A30001B6803F00073002BF0D118E07B68DB69A2
:102A4000012B01D1012313E00B4B5B68FB60FB689A
:102A500003F480327B681B6A9A4206D1FB6803F458
:102A600070127B685B6A9A4201D0012300E0002368
:102A700018461837BD4680BD001002400070004067
:102A80006000424280B584B000AF786039607B68F6
:102A9000002B01D10123D0E06A4B1B6803F0070330
:102AA0003A689A4210D9674B1B6823F007026549C0
:102AB0003B6813430B60634B1B6803F007033A68E2
:102AC0009A4201D00123B8E07B681B6803F002033F
:102AD000002B20D07B681B6803F00403002B05D07B
:102AE000594B5B68584A43F4E06353607B681B684A
:102AF00003F00803002B05D0534B5B68524A43F4A4
:102B000060535360504B5B6823F0F0027B689B6816
:102B10004D4913434B607B681B6803F00103002B96
:102B200040D07B685B68012B07D1474B1B6803F4DF
:102B30000033002B15D101237FE07B685B68022BFB
:102B400007D1414B1B6803F00073002B09D101230F
:102B500073E03D4B1B6803F00203002B01D10123FE
:102B60006BE0394B5B6823F003027B685B68364996
:102B700013434B60FEF76AFEF8600AE0FEF766FE5C
:102B80000246FB68D31A41F28832934201D90323EB
:102B900053E02D4B5B6803F00C027B685B689B0085
:102BA0009A42EBD1274B1B6803F007033A689A421D
:102BB00010D2244B1B6823F0070222493B681343C1
:102BC0000B60204B1B6803F007033A689A4201D060
:102BD000012332E07B681B6803F00403002B08D05C
:102BE000194B5B6823F4E0627B68DB68164913438A
:102BF0004B607B681B6803F00803002B09D0124B65
:102C00005B6823F460527B681B69DB000E49134349
:102C10004B6000F021F801460B4B5B681B0903F089
:102C20000F030A4AD35C21FA03F3094A1360094BE4
:102C30001B681846FEF7C8FD002318461037BD462E
:102C400080BD00BF002002400010024084790008CF
:102C5000040000200800002090B48AB000AF2A4B86
:102C60003C1D0FCB84E80F00284B1B883B800023C2
:102C7000FB610023BB6100237B6200237B61002397
:102C80003B62234B5B68FB61FB6903F00C03042B85
:102C900002D0082B03D02DE01E4B3B622DE0FB69D8
:102CA0009B0C03F00F0307F12802134413F8243C94
:102CB0007B61FB6903F48033002B13D0144B5B68FA
:102CC0005B0C03F0010307F12802134413F8283CBE
:102CD000BB617B690F4A02FB03F2BB69B2FBF3F3F2
:102CE0007B6204E07B690C4A02FB03F37B627B6A34
:102CF0003B6202E0074B3B6200BF3B6A1846283745
:102D0000BD4690BC704700BF58710008687100084C
:102D10000010024000127A0000093D0080B400AFAC
:102D2000024B1B681846BD4680BC7047040000205B
:102D300080B500AFFFF7F2FF0146054B5B681B0A49
:102D400003F00703034AD35C21FA03F3184680BD5E
:102D5000001002409479000880B500AFFFF7DEFF55
:102D60000146054B5B68DB0A03F00703034AD35CAB
:102D700021FA03F3184680BD001002409479000840
:102D800080B485B000AF78600A4B1B680A4AA2FB8A
:102D900003235B0A7A6802FB03F3FB6000BFFB6856
:102DA0005A1EFA60002BF9D100BF1437BD4680BC13
:102DB000704700BF04000020D34D621080B582B080
:102DC00000AF78607B68002B01D101231DE07B6898
:102DD00093F83D30DBB2002B06D17B68002283F8EC
:102DE0003C207868FEF7F2FB7B68022283F83D20E6
:102DF0007B681A687B6804331946104600F0D0F8E7
:102E00007B68012283F83D20002318460837BD4621
:102E100080BD000080B584B000AFF860B9607A6012
:102E2000FB6893F83C30012B01D10223B4E0FB682E
:102E3000012283F83C20FB68022283F83D207B6856
:102E40000C2B00F29F8001A252F823F0812E000883
:102E5000852F0008852F0008852F0008C12E000847
:102E6000852F0008852F0008852F0008032F0008F4
:102E7000852F0008852F0008852F0008432F0008A4
:102E8000FB681B68B968184600F0ECF8FB681B6823
:102E90009A69FB681B6842F008029A61FB681B682C
:102EA0009A69FB681B6822F004029A61FB681B6840
:102EB0009969BB681A69FB681B680A439A6162E0FA
:102EC000FB681B68B968184600F032F9FB681B689C
:102ED0009A69FB681B6842F400629A61FB681B6890
:102EE0009A69FB681B6822F480629A61FB681B6820
:102EF0009969BB681B691A02FB681B680A439A61DF
:102F000041E0FB681B68B968184600F07BF9FB6874
:102F10001B68DA69FB681B6842F00802DA61FB682B
:102F20001B68DA69FB681B6822F00402DA61FB683F
:102F30001B68D969BB681A69FB681B680A43DA61B8
:102F400021E0FB681B68B968184600F0C5F9FB680A
:102F50001B68DA69FB681B6842F40062DA61FB688F
:102F60001B68DA69FB681B6822F48062DA61FB681F
:102F70001B68D969BB681B691A02FB681B680A4396
:102F8000DA6100E000BFFB68012283F83D20FB68A6
:102F9000002283F83C20002318461037BD4680BD30
:102FA00080B485B000AF786039607B681B68FB60D7
:102FB0007B68294A93420BD07B68B3F1804F07D0DE
:102FC0007B68264A934203D07B68254A934208D106
:102FD000FB6823F07003FB603B685B68FA6813438F
:102FE000FB607B681C4A93420BD07B68B3F1804F37
:102FF00007D07B68194A934203D07B68184A9342F2
:1030000008D1FB6823F44073FB603B68DB68FA6817
:103010001343FB60FB6823F080023B685B6913434A
:10302000FB607B68FA681A603B689A687B68DA62C2
:103030003B681A687B689A627B68074A934203D1AF
:103040003B681A697B681A637B6801225A6100BF7A
:103050001437BD4680BC7047002C0140000400407E
:103060000008004080B487B000AF786039607B68AA
:103070001B6A23F001027B681A627B681B6A7B6112
:103080007B685B683B617B689B69FB60FB6823F046
:103090007003FB60FB6823F00303FB603B681B6865
:1030A000FA681343FB607B6923F002037B613B6892
:1030B0009B687A6913437B617B681C4A93420CD1FD
:1030C0007B6923F008037B613B68DB687A69134303
:1030D0007B617B6923F004037B617B68134A934225
:1030E00011D13B6923F480733B613B6923F4007386
:1030F0003B613B685B693A6913433B613B689B6991
:103100003A6913433B617B683A695A607B68FA68A5
:103110009A613B685A687B685A637B687A691A626D
:1031200000BF1C37BD4680BC704700BF002C01406B
:1031300080B487B000AF786039607B681B6A23F089
:1031400010027B681A627B681B6A7B617B685B6824
:103150003B617B689B69FB60FB6823F4E043FB6099
:10316000FB6823F44073FB603B681B681B02FA6832
:103170001343FB607B6923F020037B613B689B6802
:103180001B017A6913437B617B681D4A93420DD111
:103190007B6923F080037B613B68DB681B017A69F4
:1031A00013437B617B6923F040037B617B68144A96
:1031B000934213D13B6923F480633B613B6923F461
:1031C00000633B613B685B699B003A6913433B6169
:1031D0003B689B699B003A6913433B617B683A6992
:1031E0005A607B68FA689A613B685A687B689A63A0
:1031F0007B687A691A6200BF1C37BD4680BC704785
:10320000002C014080B487B000AF786039607B68E3
:103210001B6A23F480727B681A627B681B6A7B617D
:103220007B685B683B617B68DB69FB60FB6823F064
:103230007003FB60FB6823F00303FB603B681B68C3
:10324000FA681343FB607B6923F400737B613B687E
:103250009B681B027A6913437B617B681D4A93421A
:103260000DD17B6923F400637B613B68DB681B0243
:103270007A6913437B617B6923F480637B617B689C
:10328000144A934213D13B6923F480533B613B6959
:1032900023F400533B613B685B691B013A691343AC
:1032A0003B613B689B691B013A6913433B617B6847
:1032B0003A695A607B68FA68DA613B685A687B68E9
:1032C000DA637B687A691A6200BF1C37BD4680BC2E
:1032D000704700BF002C014080B487B000AF786019
:1032E00039607B681B6A23F480527B681A627B68B2
:1032F0001B6A3B617B685B687B617B68DB69FB60A9
:10330000FB6823F4E043FB60FB6823F44073FB603D
:103310003B681B681B02FA681343FB603B6923F49C
:1033200000533B613B689B681B033A6913433B6155
:103330007B680F4A934209D17B6923F480437B6108
:103340003B685B699B017A6913437B617B687A699F
:103350005A607B68FA68DA613B685A687B681A646D
:103360007B683A691A6200BF1C37BD4680BC704753
:10337000002C014080B485B000AF786039607B6874
:1033800093F83C30012B01D1022332E07B6801220B
:1033900083F83C207B68022283F83D207B681B6811
:1033A0005B68FB607B681B689B68BB60FB6823F005
:1033B0007003FB603B681B68FA681343FB60BB68E3
:1033C00023F08003BB603B685B68BA681343BB6053
:1033D0007B681B68FA685A607B681B68BA689A60E9
:1033E0007B68012283F83D207B68002283F83C2023
:1033F000002318461437BD4680BC704780B582B0A4
:1034000000AF78607B68002B01D101233FE07B682F
:1034100093F83930DBB2002B06D17B68002283F8A9
:1034200038207868FEF748F97B68242283F8392031
:103430007B681B68DA687B681B6822F40052DA60DC
:10344000786800F029F87B681B681A697B681B683C
:1034500022F490421A617B681B685A697B681B687A
:1034600022F02A025A617B681B68DA687B681B6855
:1034700042F40052DA607B680022DA637B68202223
:1034800083F839207B68202283F83A2000231846ED
:103490000837BD4680BD000080B584B000AF7860BD
:1034A0007B681B681B6923F440517B68DA687B6882
:1034B0001B680A431A617B689A687B681B691A4318
:1034C0007B685B691343FB607B681B68DB6823F4E4
:1034D000B05323F00C037A681268F9680B43D36089
:1034E0007B681B685B6923F440717B689A697B6821
:1034F0001B680A435A617B681B68524A93424ED14B
:10350000FFF72AFCB860BA6813469B0013449A0080
:103510001A447B685B689B00B2FBF3F34A4AA2FB48
:1035200003235B091901BA6813469B0013449A00F0
:103530001A447B685B689B00B2FBF3F2424BA3FB2F
:1035400002035B09642000FB03F3D31A1B0132332F
:103550003D4AA2FB03235B0903F0F0031944BA6858
:1035600013469B0013449A001A447B685B689B00D7
:10357000B2FBF3F2344BA3FB02035B09642000FBB4
:1035800003F3D31A1B0132332F4AA2FB03235B0937
:1035900003F00F027B681B680A449A604DE0FFF756
:1035A000C7FBB860BA6813469B0013449A001A44DC
:1035B0007B685B689B00B2FBF3F3234AA2FB032307
:1035C0005B091901BA6813469B0013449A001A4418
:1035D0007B685B689B00B2FBF3F21B4BA3FB02030F
:1035E0005B09642000FB03F3D31A1B013233164A34
:1035F000A2FB03235B0903F0F0031944BA681346E6
:103600009B0013449A001A447B685B689B00B2FBE2
:10361000F3F20D4BA3FB02035B09642000FB03F3F1
:10362000D31A1B013233084AA2FB03235B0903F0C0
:103630000F027B681B680A449A6000BF1037BD46C2
:1036400080BD00BF003801401F85EB51014B186859
:10365000704700BF1000002070B500250C4E0D4CC7
:10366000A41BA410A54209D103F060FD00250A4E59
:103670000A4CA41BA410A54205D170BD56F82530F4
:1036800098470135EEE756F8253098470135F2E7BF
:10369000507C0008507C0008507C0008547C0008D6
:1036A00003460244934200D1704703F8011BF9E737
:1036B000002B2DE9F0471E46BBBF03F100431E4619
:1036C00000232D2388B0149FDDE9121A27F020076C
:1036D000462F1446109D0B7004D0452F00D10135A4
:1036E000022300E0032307AA049206AACDE902A25E
:1036F000CDE900352246334601F07EFD472F804656
:1037000002D1119BDB0726D5462F08EB050911D105
:1037100098F80030302B0AD1002200232046314691
:10372000FDF742F918B9C5F10105CAF80050DAF8F9
:10373000003099440022002320463146FDF734F939
:1037400038B93022079B4B4505D2591C07911A7096
:10375000F8E7CDF81C904046079B159AA3EB0803A9
:10376000136008B0BDE8F087F7B50029B4BF2D237A
:103770002B230446B8BF4942092904F8022B4370A1
:1037800021DD0DF107031F460A2691FBF6F506FB26
:103790001511092D01F1300103F8011C03F1FF326D
:1037A000294609DC3031023B02F8011CBB422246AB
:1037B00004D3101A03B0F0BD1346E6E713F8012B4B
:1037C00004F8012BF2E7302319448370021DC17005
:1037D000EFE700002DE9F04F91B00C461A9F934699
:1037E0001E46054602F0EAFD036818460993FCF7F9
:1037F000AFFC00230E933B680A90073323F00703C6
:1038000003F1080294F81880D4F800A03A60D3E9D4
:103810000023C4E91223D4E9127929F000430B9361
:103820004FF0FF32A64B38460B99FDF7EFF868BB17
:103830004FF0FF32A24B38460B99FDF7C9F828BB71
:103840000022002338464946FDF7B8F810B12D2371
:1038500084F843309B4F9C4BB8F1470F98BF1F46ED
:1038600003234FF0000923612AF00403236000962C
:103870005B460FAA2146284600F0E2F9013040F0ED
:1038800090804FF0FF3011B0BDE8F08F3A464B46C4
:1038900038464946FDF7BAF810B18C4F8C4BDBE740
:1038A00063684AF48062591C0DA80EA940D1062312
:1038B00063604FF0000C0DF13303CDE90123636821
:1038C0002260CDE9030800933A464B46CDE9051C3A
:1038D0002846FFF7EDFE08F0DF03472B074609D126
:1038E0000D9BD81C02DB6268934247DDA8F10208F9
:1038F0005FFA88F8B8F1650F0D9924D8013942466E
:1039000004F150000D91FFF72FFF0E9A8146131816
:10391000012A236102DC2268D10701D5013323612A
:103920009DF83330002BA2D02D2384F843309EE73E
:10393000B8F1670F00F06E81B8F1470FB9D1002BD5
:10394000B7D10123B4E7B8F1660F19D10029636834
:103950000CDD216113B92268D20702D501330B4473
:1039600023610D9B4FF00009A365D9E713B92268C5
:10397000D00701D50233F3E70123F1E74FF06708E1
:10398000DDE90D32934205DB22682361D107E8D5DA
:103990000133E5E7002BCCBF0123C3F1020313443D
:1039A000DEE723685A0507D423693A465946284674
:1039B000B047013029D164E7B8F1650F40F2D780F4
:1039C000D4E9120100220023FCF7EEFF88B30123A3
:1039D000404A59462846B04701303FF452AFDDE92E
:1039E0000D239A4202DB2368D8070ED5DDE90923AF
:1039F00059462846B04701303FF443AF002704F151
:103A00001A080E9B013BBB4209DC23689F0700F1AB
:103A1000FD80E0680F9B9842B8BF184633E701234A
:103A2000424659462846B04701303FF42AAF013795
:103A3000E7E70D9B002B2BDC0123264A594628463D
:103A4000B04701303FF41DAF0D9B23B90E9B13B956
:103A50002368D907D9D5DDE9092359462846B04757
:103A600001303FF40EAF4FF0000804F11A090D9B2E
:103A70005B42434501DC0E9B97E701234A465946CA
:103A80002846B04701303FF4FCAE08F10108EEE7EC
:103A90000E9AA36D9A42A8BF1A46002A904607DDE7
:103AA000134659463A462846B04701303FF4E9AE3E
:103AB00004F11A034FF0000A28EAE8780B9315E0A6
:103AC000FFFFEF7FA07900089C790008A879000823
:103AD000A4790008AC79000801230B9A59462846BE
:103AE000B04701303FF4CDAE0AF1010AD4F8589046
:103AF000A9EB08035345EFDCDDE90D239A424F445F
:103B000014DB2368DA0711D40E9B0D99A3EB09028D
:103B1000A3EB01099145A8BF9146B9F1000F0DDC57
:103B2000002729EAE97904F11A0818E0DDE90923F8
:103B300059462846B0470130E6D1A2E64B463A4600
:103B400059462846B0470130EAD19AE60123424659
:103B500059462846B04701303FF493AE0137DDE9BE
:103B60000D239B1AA3EB0903BB42EFDC4DE70E9A32
:103B7000012A01DCDB0738D501233A46594628469D
:103B8000B04701303FF47DAEDDE9092359462846B0
:103B9000B047013007F101073FF473AED4E91201D9
:103BA0000E9B002203F1FF380023FCF7FDFEC0B995
:103BB00043463A4659462846B04701300DD160E6A3
:103BC0000123424659462846B04701303FF459AEDA
:103BD00001370E9B013BBB42F2DC4B4604F1500225
:103BE000E4E6002704F11A08F3E70123E1E70123E3
:103BF000424659462846B04701303FF442AE0137AD
:103C0000E3680F9A9B1ABB42F1DC02E7002704F13C
:103C10001908F5E7002B3FF494AE4FF0000CCDE906
:103C2000051C0DF133012260CDE90308CDE9012126
:103C300000933A464B462846FFF73AFD07464FE6C3
:103C40002DE9F04791461F468A680B690646934264
:103C5000B8BF1346C9F8003091F843200C46DDF890
:103C6000208012B10133C9F800302368990642BFA1
:103C7000D9F800300233C9F80030256815F0060580
:103C800007D104F1190AE368D9F800209B1AAB4266
:103C900029DC94F843302268003318BF01239206D0
:103CA0002ED404F1430239463046C047013021D0BA
:103CB0002368E56803F00603042B18BF0025D9F834
:103CC00000204FF0000908BFAD1AA368226908BFA1
:103CD00025EAE5759342C4BF9B1AED181A344D4589
:103CE0001AD1002008E00123524639463046C04729
:103CF000013003D14FF0FF30BDE8F0870135C2E756
:103D00003020E11881F843005A1C94F845102244F1
:103D1000023382F84310C4E7012322463946304675
:103D2000C0470130E6D009F10109D8E72DE9F04399
:103D300001F1430C0C46097E85B06E2917460646F4
:103D400098460C9A00F0B38022D8632936D00AD85E
:103D5000002900F0B980582900F0838004F1420561
:103D600084F8421032E0642901D06929F6D1206834
:103D70001368050603F104012AD51B681160002BA6
:103D800003DA2D225B4284F843206F480A2239E08F
:103D9000732900F09D8008D86F2920D07029DDD1CB
:103DA000236843F02003236003E0752917D07829A6
:103DB000D4D17823654884F8453055E0136804F180
:103DC0004205191D1B68116084F8423001238CE004
:103DD0001B6810F0400F116018BF1BB2CFE71368CB
:103DE0002568181D1060280601D51B6802E06806CA
:103DF000FBD51B886F2914BF0A22082252480021D4
:103E000084F843106568002DA560C0F29580216894
:103E100021F004012160002B3DD1002D40F08E8067
:103E20006546082A0BD12368DB0708D52369626839
:103E30009A42DEBF302305F8013C05F1FF35ACEBBB
:103E400005032361CDF800803B4603AA2146304696
:103E5000FFF7F6FE01304DD14FF0FF3005B0BDE861
:103E6000F083394884F84510136821681D1D1B68CC
:103E700015600A060BD5CA0744BF41F02001216036
:103E80001BB9226822F0200222601022B7E74D06FB
:103E900048BF9BB2EFE76546B3FBF2F102FB11337B
:103EA000C35C05F8013D0B460029F5D1B9E713685D
:103EB0002568181D6169106028061B6801D5196006
:103EC00002E06A06FBD51980002365462361B9E745
:103ED0001368191D11601D6862680021284602F0F0
:103EE00095FA08B1401B606063682361002384F881
:103EF0004330A7E723692A4639463046C047013098
:103F0000AAD023689B0713D4E068039B9842B8BFEC
:103F10001846A3E701234A4639463046C0470130D8
:103F20009AD00135E368039A9B1AAB42F2DCEBE7C7
:103F3000002504F11909F5E7002BACD1037804F151
:103F4000420584F842306CE7AE790008BF7900087A
:103F50002DE9F04F9A468B6816465A1EB2F5AE7F91
:103F600088BF6FF4AE7287B085BF9B1801930023A2
:103F700040F25D1388464FF0000B8CBF8B600193BD
:103F80000B68074643F4F06348F81C3B0C46454673
:103F90005A46D946CDE903BBCDF808B0A16881B136
:103FA00033681B78492B71D04DD8392B40D8312B31
:103FB00080F088802D2B00F0908015D82B2B00F0FE
:103FC0008C80B9F1000F03D0236823F48073236041
:103FD000013A012A00F2EA80454500F2DC80012620
:103FE000304607B0BDE8F08F2E2B00F09F80302BBD
:103FF000E7D1206810F4807F64D0019B20F080001E
:10400000206009F101091BB1013B01310193A1605D
:10401000A368013BA3602369013323617368013BFB
:10402000002B736040F3AC80336801333360B5E735
:10403000452B00F08580462B6AD0412BC1D1012A47
:10404000BFD1022246E0652B7AD018D8542B66D017
:1040500011D84E2BB5D1002A46D1B9F1000F45D168
:10406000216801F4E060B0F5E06F3FD121F4F06128
:10407000216001222EE0592B1ED0612BDEE76E2B32
:10408000E9D015D8662B43D0692B9AD1BBF1000F2C
:1040900038D1B9F1000F97D1216801F4E060B0F593
:1040A000E06F95D121F4F06121604FF0010B11E038
:1040B000742B34D0792B84D1BBF1070F81D14FF011
:1040C000080B07E012EB0B0F7FF47BAF216821F4A4
:1040D000C07121602B7001359AE7216808067FF5D1
:1040E00070AF21F08001F4E7022A47D0BBF1010F45
:1040F00003D0BBF1040F7FF464AF0BF1010B5FFA47
:104100008BFBE7E7BBF1030FF7D0BBF1050FF2E73D
:10411000BBF1020F7FF455AF4FF0030BDAE7BBF1B1
:10412000060F7FF44EAF4FF0070BD3E721688805E9
:104130007FF547AF21F420712160CDF80890C9E7E1
:10414000216801F4A060B0F5806F06D048057FF5C6
:1041500038AFB9F1000F3FF43BAF880558BF029864
:1041600021F4F06158BFA9EB000041F4C07158BFC1
:10417000CDE9030521604FF00009ABE70322A9E771
:10418000D4F880313146384605929847059A002880
:104190003FF404AF15E7D4F87C31324615F8011D21
:1041A000384698472369013B236115E70BF1FF333C
:1041B000062B0AD8BBF1020F67D9ABF1030B5FFAEC
:1041C0008BFBA5EB0B0B5D454AD12368DA051FD5A8
:1041D0005B0567D415F8011C2369652903F1FF33DA
:1041E00005F1FF3B23610DD045290BD0D4F87C317C
:1041F000324638469847236915F8021C013BA5F161
:10420000020B2361D4F87C313246384698475D462C
:10421000266816F0100676D12E70236803F4C0636A
:10422000B3F5806F41D1029BA9EB03035A42002BE7
:1042300048D141460022384600F0B2FE256880464B
:1042400015F0020F8946DAF8003046D01A1DCAF878
:1042500000201B68C3E90089E3680133E360BFE61F
:10426000D4F87C31324615F8011D38469847236949
:10427000013B2361A7E7D4F87C31324615F8011DD4
:10428000384698472369013B23614545F3D8A6E6A4
:10429000D4F87C31324615F8011D38469847236919
:1042A000013B23614545F3D899E6039B002BC0D021
:1042B00004990A2332460131384600F0FDFE039B83
:1042C000049DC21A04F26F139D4228BF04F5B7750E
:1042D0000E49284600F020F8ABE71F1D15F0040535
:1042E000CAF80070B5D11F6802460B46FCF78EFB7A
:1042F00020B1284600F00CF83860ADE7404649464A
:10430000FCF7E2FBF8E700266AE600BFD079000878
:10431000004870470000C07F0EB46FF0004100B548
:104320009CB01DAB02900690079104910848094982
:1043300053F8042B0591006802A9019302F086FD51
:104340000022029B1A701CB05DF804EB03B07047AA
:10435000100000200802FFFF2DE9F0410F469046B3
:1043600002F038FB04460D46B8F1000F11D0C7F338
:104370000A53C3F16B03002B0BDD00241B0503F173
:104380007F5505F5401522462B46FCF7A5F8044657
:104390000D4620462946BDE8F081000000000000DF
:1043A0002DE9F04F1F460023A1B0834638460E4644
:1043B00017921C9301F0FFFF80460068FBF7C8FED0
:1043C0004FF0000904464FF0000A1B961B9B1A7819
:1043D0000D2A32D8092A36D2002A3ED000230D9366
:1043E0001B9D2B78302B40F0AC806B78582B01D084
:1043F000782B67D10D9B029701931CAB0093894AE0
:104400001DAB1BA9584601F0FBFC10F00704064643
:1044100005D0062C2BD1002301351B950D93179B3E
:10442000002B40F0A6850D9BE3B14A460AF10043FC
:104430001046194621B0BDE8F08F2B2A15D02D2A41
:1044400004D0202ACAD101331B93BFE701220D9269
:104450005A1C1B925B78002BC2D1179B1B96002B1A
:1044600040F085854A465346E2E70022EFE71C9A72
:104470003AB135211EA802F0A0FB1C99584602F063
:1044800012F8013C042C06D8DFE804F00A031417E4
:104490000A00DDE91E9A3107C1D54AF0004ABEE79D
:1044A0001D9ADDE91E9302F2334223F4801343EA9E
:1044B000025AF0E7DFF870A1EDE76FF0004A4FF025
:1044C000FF39E8E71B9B5A1C1B925B78302BF9D015
:1044D000002BA4D0012300250A2207931B9B0695DD
:1044E000089304951B980778A7F13003D9B20929DE
:1044F00029D92246D8F8001002F0B0FD002831D0AA
:1045000000203B460246049C0590652B01D0452BBC
:1045100014D124B910B9079B002B9ED000241B9EF8
:10452000731C1B9373782B2B78D02D2B70D04FF0EE
:10453000000CA3F13007092F7CD91B964FF0000E19
:104540009AE00023C7E7049901300829D7BF0699EC
:1045500002FB053502FB01330693049B1B900133DC
:104560000493BFE71B9B1A191B92049A1B5D002A38
:1045700037D00246049CA3F13001092913D9012147
:104580000591C2E71B9B01305A1C1B925B78302BB4
:10459000F8D0A3F13102082A00F2F0841B9A0892A5
:1045A000024600200446B3F1300E00F1010112D0A2
:1045B0000A440A27214600EB040C8C4513D121182C
:1045C000082904F10104044419DC0A21069B01FBBB
:1045D00003E3069300211B9B581C1B905B78084645
:1045E000C9E70498D3E7082901F1010103DC069B20
:1045F0007B430693E1E71029D8BF7D43DDE7102C0C
:10460000DCBF0A2101FB05E5E4E70123059381E70F
:104610004FF0010CB31C1B93B3788AE74FF0000CEA
:10462000F8E700BFD87900080000F07F1B9B5F1CF3
:104630001B975B78302BF9D0A3F13107082F3FF699
:104640007DAFA3F1300E1B9B09931B9B5F1C1B9737
:104650005B78A3F13008B8F1090F37D909997F1AAF
:10466000082F44F61F6737DCBE45A8BFBE46BCF125
:10467000000F01D0CEF1000E002C51D100287FF4A4
:10468000CEAE079A002A7FF4CAAE059A002A7FF4BC
:10469000E4AE4E2B27D021DC492B7FF4DEAEA449BB
:1046A0001BA801F0E1FD00283FF4D7AE1B9BA149F8
:1046B000013B1BA81B9301F0D7FD10B91B9B0133D5
:1046C0001B93DFF884A24FF00009A8E60A2101FB42
:1046D0000E3EAEF1300EB8E7BE46C8E7692BDED01D
:1046E0006E2B7FF4BAAE94491BA801F0BDFD0028E3
:1046F0003FF4B3AE1B9B1B78282B0ED11EAA8F490B
:104700001BA801F0C5FD052807D11F9BDDF8789097
:1047100043F0FF4A4AF4E00A81E6DFF834A2D2E728
:10472000AEEB02030793049B0698002B08BF2346B9
:10473000102C0493A046A8BF4FF01008FBF752FEC0
:10474000092C81468A4613DC079B002B3FF467AE99
:10475000079B7EDD162B65DC794A02EBC30E4A46C9
:10476000DEE900015346FBF7B7FE81468A4656E66E
:10477000734B03EBC80353E91223FBF7ADFE064668
:1047800028460F46FBF72EFE02460B4630463946BA
:10479000FBF7ECFC0F2C81468A46D5DD079BA4EB8A
:1047A00008089844B8F1000F40F39A8018F00F03FE
:1047B0000AD063494A4601EBC301D1E900015346DF
:1047C000FBF78AFE81468A4638F00F0877D0B8F5A5
:1047D0009A7F4BDD4FF00008CDF81080CDF8208097
:1047E000CDF8188022234FF00009DFF85CA1CBF848
:1047F0000030089B002B3FF412AE1C99584601F084
:1048000052FE0699584601F04EFE0499584601F0B2
:104810004AFE0899584601F046FE4146584601F0C6
:1048200042FEFCE5079AC4F125039342B6DB444DF2
:10483000C4F10F0405EBC4014A46D1E90001534617
:10484000FBF74AFE079B1C1B05EBC405D5E90023BB
:1048500089E713F1160FA1DB394A4846A2EBC302E0
:10486000D2E900235146FBF761FF7EE7002348466B
:1048700051461D46334E4FEA2818B8F1010F21DC8E
:104880000BB181468A462F4BAAF1547A03EBC5053A
:104890004A46D5E900015346FBF71EFE2A4B0A465D
:1048A0000B402A4981468B4294D8A1F580118B4256
:1048B00086BF4FF0FF39DFF89CA002F1547A002345
:1048C00005937BE018F0010F06D006EBC503D3E992
:1048D0000023FBF701FE012301354FEA6808CCE70E
:1048E000EDD0C8F1000818F00F020AD0144B48466A
:1048F00003EBC2035146D3E90023FBF717FF8146C0
:104900008A465FEA2818DAD0B8F11F0F24DD4FF08D
:104910000008CDF81080CDF82080CDF81880222333
:104920004FF000094FF0000ACBF8003061E700BFFC
:10493000A17900082B7A0008A9790008EC79000811
:10494000687A0008407A00080000F07F0000A07C30
:104950000000F8FFFFFFEF7F18F0100318BF6A2375
:104960004846059351460023A14DB8F1000F00F3CE
:1049700013810BB181468A46059BBBB1CAF30A532A
:10498000C3F16B03002B514610DD1F2B40F3108148
:10499000342BD8BF4FF0FF324FF00009CFBF4FF09C
:1049A0005C7A203B02FA03F303EA010A00220023A7
:1049B00048465146FBF7F8FF0028A8D1069B049A09
:1049C000009308992346584601F0BFFD089000283F
:1049D0003FF400AF079A079B002AC3F10003A8BF6A
:1049E00000234FF000080E9322EAE2731693CDF8ED
:1049F0001080089B5846596801F021FD0690002858
:104A00003FF4F0AE089B0C301A6903F10C0102323E
:104A1000920001F009FD1EAB01931DAB00934A46C5
:104A200053465846CDE90A9A02F04AF81C900028ED
:104A30003FF4D8AE0121584601F013FE049003461E
:104A400000283FF4CFAE1D9D1E9A002DABBF0E9BDC
:104A5000169BEE185C1B059BA8BF169CA5EB0305D7
:104A60001544644B05F1FF35B8BF0E9E9D42C2F15F
:104A7000360280F2AF805B1B1F2BA2EB03024FF0CC
:104A8000010700F39C80002507FA03F30F93B71882
:104A9000059BBE4214441C443346A8BF3B46A34278
:104AA000A8BF2346002BC2BFFF1AE41AF61A0E9BBA
:104AB000BBB11A460499584601F072FE04900028D2
:104AC0003FF490AE01461C9A584601F0D3FD099080
:104AD00000283FF487AE1C99584601F0E4FC099B7E
:104AE0001C93002F7ADC079B002B08DD169A069991
:104AF000584601F055FE069000283FF473AE002C96
:104B000008DD22460699584601F098FE06900028D6
:104B10003FF468AE002E08DD32460499584601F095
:104B20008DFE049000283FF45DAE069A1C9958460D
:104B300001F0F2FE804600283FF454AE0024C36822
:104B40000499C4600C9301F0CDFEA04254DA0C9B92
:104B5000F3B9B9F1000F1BD1CAF31303C3B92AF09B
:104B600000431B0D1B05B3F1D66F11D9D8F81430D3
:104B70001BB9D8F81030012B0ADD414601225846F6
:104B800001F05CFE0499804601F0ACFE002868DC70
:104B9000059B002B72D130E618F0010F04D0D5E947
:104BA0000023FBF799FC01234FEA68080835DCE68F
:104BB0004FF0FF3202FA03F303EA0909F6E6C5F102
:104BC0007F4505F57F0505F57B45E23507FA05F5D7
:104BD0000F975CE7012300250F9358E73A461C998D
:104BE000584601F02BFE1C9000287FF47CAFF9E5BD
:104BF000007A000802FCFFFFCDF824A040F0898075
:104C00000C9ACAF3130342B3AF4A934256D1059BA1
:104C10004846EBB15346AD4A4FF0FF311A40B2F16E
:104C2000D46F18D8120DC2F16B0301FA03F3984246
:104C300044D1A74B099A9A4202D101303FF4D2AD38
:104C4000A24B099A4FF000091A4002F5801A9FE71B
:104C50004FF0FF33EBE70B46E9E77BBBB9F1000F01
:104C60002CD105995346994AF1B102EA0A01B1F1F2
:104C7000D66F19DCB1F15C7F7FF751AE0023954A06
:104C80004846CDE914325146DDE91423FBF724FCF4
:104C900081468A4600297FF4B0AD00287FF4ADAD8F
:104CA0002223CBF80030A8E51340A3F580136FEA68
:104CB000135A4FF0FF396FEA0A5A69E79DB1099B11
:104CC0001D423FF465AF0C9B059A4846514673B1AF
:104CD000FFF742FB02460B46DDE90A01FBF746FA05
:104CE00081468A4654E70F9B13EA090FE9E7FFF76D
:104CF00033FB02460B46DDE90A01FBF735FA0022D9
:104D0000002381468A46FBF74FFE00287FF407AE5A
:104D10003EE70499404601F022FF00224FF0804315
:104D200006460F46FBF754FE002875D00C9B002B5F
:104D300047D00026684F684D099B23F000431B0DA8
:104D40001B050F930F9A654B9A4240F0CF80DDE927
:104D50000A23CDE91423099B4846A3F1547A51460E
:104D600001F038FE02460B4630463946FBF7B4FBED
:104D70004A465346FBF7FAF90B465449584A19403C
:104D8000914281465ED90B9B02F15472934203D14A
:104D90000A9B01333FF426AD4FF0FF39DFF830A115
:104DA0001C99584601F07FFB0699584601F07BFBA1
:104DB0000499584601F077FB4146584601F073FBD1
:104DC00017E6B9F1000F19D1099BC3F31303E3B937
:104DD0000022414B30463946FBF7F0FDC8B90022AE
:104DE000404B30463946FBF777FB04460D4605F14C
:104DF000004318941993DDE918679DE7B9F1010F95
:104E000003D1099B002B3FF48AAD0026364F0024C6
:104E100091E70C9C334DEAE7324B0022304639468D
:104E2000FBF75AFB0C9B04460D4633B901F10043D6
:104E300010901193DDE910677EE702460B46CDE93D
:104E40001023F7E703F1547A059B002BA8D12AF031
:104E500000431B0D0F9A1B059A425646A0D12946C6
:104E60002046FBF7E9FDFBF7CDFA0B460246294643
:104E70002046FBF779F90C9B04460D4633B9B9F18E
:104E8000000F03D1CAF31306002E6AD00AA3D3E998
:104E9000002320462946FBF791FD00287FF4ADACA6
:104EA00007A3D3E9002320462946FBF7A5FD0028E8
:104EB0003FF476AFA1E400BF9535A094FFFFDF3F3C
:104EC00035E5AF350000E03FFFFF0F000000F07F49
:104ED000FFFFEF7F000050390000F03F0000E07F4F
:104EE000FFFF9F7C0000E03F0000F0BF059B13B375
:104EF0000F9BB3F1D46F1ED825A3D3E9002320461E
:104F00002946FBF765FD90B129462046FBF7BCFD1D
:104F1000002808BF0120FBF765FA0C9B04460D46EC
:104F2000D3B901F1004312901393DDE912670F9A90
:104F300007F1D6639F1ADDE90A0101F04BFD024635
:104F40000B4630463946FBF7C7FADDE90A23FBF783
:104F50000DF981468A4677E702460B46CDE91223D2
:104F6000E3E70DA3D3E90023FBF728FD9FE7002328
:104F70000D931B9B179A1360FFF755BA652B4FF0E3
:104F800000023FF442AB012114460591FFF7BFBA7E
:104F90000000C0FFFFFFDF419535A094FFFFCF3F2A
:104FA000054B10B41B68054C1B6A002B08BF234639
:104FB00010BCFFF7F5B900BF1000002074000020FE
:104FC0002DE9F0478046894692461E460F463D46EB
:104FD000089815F8014B01F0EBF92044437813F0E1
:104FE000080332D12D2C32D101227C78BD1C002E39
:104FF0005DD0102E09D1302C07D12B7803F0DF03C0
:10500000582B4FD110266C780235002A14BF4FF070
:1050100000416FF000410027B1FBF6FC384606FB6B
:105020001C1EA4F13003092B17D81C46A64223DD11
:105030007B1C07D084451CD301D1A64519DB012771
:1050400000FB064015F8014BEBE72F46BFE72B2C82
:1050500004BFBD1C7C781A46C9E7A4F14103192B93
:1050600001D8373CE2E7A4F16103192B04D8573C7F
:10507000DCE74FF0FF37E5E77B1C08D12223084629
:10508000C8F80030BAF1000F07D1BDE8F08702B1CF
:105090004042BAF1000FF8D00FB105F1FF39CAF85C
:1050A0000090F2E73024002EAFD10826ADE7302C77
:1050B000A3D00A26A9E7000037B5064C064D2468A0
:1050C000246A002C08BF2C460094FFF779FF03B038
:1050D00030BD00BF10000020740000202DE9F74F04
:1050E00003690C698046A342C0F28480013C01F14F
:1050F000140700F1140657F8245056F8240001351F
:10510000B0FBF5F54FEA840C06EB0C0307EB0C093A
:1051100001939DB34FF0000A3846B646D34650F887
:10512000042B93B205FB03A3120C4FEA134A05FBB1
:1051300002A29BB2ABEB0303DEF800B04FEA124AC7
:105140001FFA8BFB5B441FFA82FBDEF800208145CF
:10515000CBEB124202EB23429BB243EA02434FEAFB
:10516000224B4EF8043BDAD256F80C3033B9019B8F
:10517000043B9E421A4631D3C8F81040404601F025
:10518000B1FB002826DB30464FF0000C013557F804
:10519000041BD0F800E08BB2ACEB03031FFA8EF2D5
:1051A00013440A0CC2EB1E4202EB23429BB243EAB9
:1051B0000243B9454FEA224C40F8043BE7D256F887
:1051C000242006EB84032AB9043B9E421A460BD3E3
:1051D000C8F81040284603B0BDE8F08F1268043BC1
:1051E000002AC9D1013CC4E71268043B002AEFD170
:1051F000013CEAE70020EEE72DE9F04F16461F4696
:10520000456A95B00446DDF88480CDE902673DB972
:10521000102001F0E1F86062C0E901550560C56049
:10522000636A196851B15A68012393404A608B60E0
:10523000204601F038F90022636A1A603B1EAFBFB6
:105240000023012223F000430393ACBFC8F80030D1
:10525000C8F80020AE4BDDF80C8033EA08031BD100
:1052600042F20F73209A1360029B23B9C8F3130014
:10527000002800F04585229B53B9A64B21E0A64BA0
:1052800006930833229A1360069815B0BDE8F08F94
:10529000A04B06930333F5E7DDE902670022002304
:1052A00030463946FBF780FB824660B10123209AE5
:1052B0001360229B002B00F02085984B229A1360EC
:1052C000013B0693E0E712AB019313AB0093324628
:1052D0003B46204601F0F4FBC8F30A558346002DF7
:1052E0007DD0B046C7F3130343F07F5949F440190A
:1052F000A5F2FF35CDF840A00022894B4046494633
:10530000FAF732FF7CA3D3E90023FBF7E5F87CA38F
:10531000D3E90023FAF72AFF064628460F46FBF793
:1053200071F879A3D3E90023FBF7D6F802460B46C0
:1053300030463946FAF71AFF06460F46FBF77CFB64
:1053400000228246002330463946FBF737FB48B13E
:105350005046FBF757F832463B46FBF725FB08B9AA
:105360000AF1FF3ABAF1160F5AD8DDE902236D4966
:1053700001EBCA01D1E90001FBF73EFB002851D047
:1053800000230AF1FF3A0D93129B5D1B6B1E0793DE
:1053900043BF0023C5F1010907934FF00009BAF19B
:1053A000000F41DB079BCDF830A053440793002347
:1053B00008931E9B092B00F28F80052BC4BF043B72
:1053C0001E931E9BC8BF0025A3F10203D8BF012571
:1053D000032B00F28D80DFE803F07B7D2F6FDDE98A
:1053E00012531D4405F23240202813DDC0F1400065
:1053F000029B08FA00F805F2124023FA00F048EA8E
:105400000000FAF7EFFF01238046A1F1F879013D92
:10541000109371E7029BC0F1200003FA00F0F0E75F
:105420000123B0E70D90AFE7CAF100030893002312
:10543000A9EB0A090C93BCE7012309931F9B002BDE
:1054400074DD984604930022666A7260042202F1B9
:105450001400984271686ED9204600F0F0FF636A2C
:1054600030601B68B8F10E0F069300F2ED80002D3E
:1054700000F0EA80DDE90223BAF1000FCDE90E2346
:1054800077DD284A0AF00F034FEA2A1602EBC3031E
:10549000F006D3E90023CDE90A2368D5DDE90E0142
:1054A000214B0325D3E90823FBF740F9CDE902019D
:1054B00006F00F061C4F4FE0012309931F9B534436
:1054C00003F1010804934346012BB8BF0123BAE757
:1054D0000023B2E70023F0E70125002309951E937E
:1054E0004FF0FF3300220493984612231F92AAE73D
:1054F00001230993F4E700BF61436F63A787D23F9D
:10550000B3C8608B288AC63FFB799F501344D33FB2
:105510000000F07F317A0008287A0008AD79000891
:105520000000F83F687A0008407A000801230493DD
:1055300098461A46DAE701317160520087E7F107B1
:1055400008D5DDE90A01D7E90023FAF7C5FFCDE95F
:105550000A01013576100837002EF0D1DDE90A2363
:10556000DDE90201FBF7E2F8CDE902011BE00225CB
:10557000A0E700F0A480DDE90E01CAF10006A04B0F
:1055800006F00F0203EBC203D3E90023FAF7A4FFEE
:1055900002250023CDE902019A4F3611002E40F07A
:1055A0008380002BE0D10D9B002B00F08A80DDE989
:1055B0000223CDE90A23DDE90A010022924BFBF721
:1055C000FDF900287DD0B8F1000F7AD0049B002BA4
:1055D00036DDDDE90A0100228C4BFAF77DFFCDE9CB
:1055E0000201049E0AF1FF3701352846FAF70AFF47
:1055F000DDE90223FAF770FF0022854BFAF7B6FDCA
:10560000A1F15075CDE90A010B95002E5CD1DDE9C1
:10561000020100227F4BFAF7A7FD0A9A2B46CDE93B
:105620000201FBF7E9F9002840F08182DDE902017F
:105630000A9A05F10043FBF7C1F9002840F0758292
:10564000DDE90E23CDE90223139B002BC0F24B8131
:10565000BAF10E0F00F34781694B03EBCA03D3E99C
:105660000023CDE904231F9B002B80F2D780B8F1E3
:10567000000F00F3D38040F05782DDE904010022DF
:10568000644BFAF729FFDDE90223FBF7ABF9464645
:105690004746002840F02D82069B069A5D1C312368
:1056A0000AF1010A137028E2F20705D5D7E90023B1
:1056B000FAF712FF01230135761008376EE702254D
:1056C00071E75746464690E74D4B03EBC60353E957
:1056D0000201099B002B48D002460B4600204E4990
:1056E000FBF724F8DDE90A23FAF73EFDCDE90A01CC
:1056F000069DDDE90201FBF79FF91190FAF782FEA2
:1057000002460B46DDE90201FAF72EFD119BCDE9B9
:105710000201303305F8013BDDE90A23FBF74EF9BE
:10572000002863D1DDE9022300203749FAF71CFD88
:10573000DDE90A23FBF742F9002840F0B580069B1B
:10574000EB1A9E427FF77CAFDDE90A0100222F4B66
:10575000FAF7C2FE0022CDE90A01DDE902012B4B76
:10576000FAF7BAFECDE90201C3E7DDE90A23FAF749
:10577000B3FE069BCDE90A019D191E46DDE9020133
:10578000FBF75AF91190FAF73DFE02460B46DDE9A8
:105790000201FAF7E9FC119BCDE90201303306F86A
:1057A000013BAE424FF0000224D1DDE90A011A4B61
:1057B000FAF7DCFC02460B46DDE90201FBF71CF9B7
:1057C000002871D1DDE90A2300201349FAF7CCFC47
:1057D00002460B46DDE90201FBF7F0F800283FF432
:1057E0002FAF15F8013C6A1E302B01D0BA464AE0B3
:1057F0001546F6E7054BFAF76FFECDE90201BDE766
:10580000687A0008407A00080000F03F0000244059
:1058100000001C40000014400000E03F069DDDE950
:105820000267DDE9042330463946FAF77FFFFBF7CC
:1058300003F98146FAF7E6FDDDE90423FAF74CFEA9
:1058400002460B4630463946FAF78EFC09F130061F
:1058500005F8016B069E0246AE1BB0450B4635D1DE
:10586000FAF784FCDDE9042306460F46FBF7C4F88B
:10587000C8B9DDE9042330463946FBF795F810B185
:1058800019F0010F0FD15946204600F00CFE0023FD
:10589000209A2B700AF101031360229B002B3FF426
:1058A000F3AC1D60F0E4574615F8012C6B1E392A45
:1058B00006D1069A9A4207D1302313701346013756
:1058C0001A7801321A7091E71D46EDE70022994BD4
:1058D000FAF702FE0022002306460F46FBF764F8A3
:1058E00000289ED0CFE7099A002A00F088801E9AEF
:1058F000012A6DDC109A002A66D003F233434D462C
:10590000089E079A01211A4420469944079200F004
:10591000A8FE0746002D0BDD079B002B08DDAB42E0
:10592000A8BF2B46079AA9EB0309ED1AD31A0793D0
:10593000089BEBB1099B002B65D08EB139463246EE
:10594000204600F02DFF5A4601460746204600F04B
:1059500091FE59460A90204600F0A5FD0A9B9B4601
:10596000089B9A1B04D05946204600F019FF834635
:105970000121204600F075FE0C9B0646002B00F02E
:10598000C6811A460146204600F00AFF1E9B0646C5
:10599000012B3EDC029B002B37D1039BC3F3130387
:1059A000002B34D1039B23F000431B0D1B052BB1AF
:1059B000079B09F1010901330793012308930C9B0D
:1059C000002B28D101202EE0129BC3F1360396E76D
:1059D000089B08F1FF36B342B7BF089B9E1BF21A23
:1059E0000C9BBFBF08969B180C930026B8F1000FC4
:1059F000B9BFA9EB080500234D46434681E7089E41
:105A00004D46099F86E7089AADE70023D6E7029B3B
:105A1000D4E700230893336906EB8303186900F089
:105A2000D2FDC0F12000079B184410F01F0047D0A2
:105A3000C0F12003042B3BDD079BC0F11C00814417
:105A4000054403440793B9F1000F05DD59464A4662
:105A5000204600F0F3FE8346079B002B05DD314610
:105A60001A46204600F0EAFE06460D9B53B3314627
:105A7000584600F037FF002824DA002359460A224E
:105A8000204600F027FD099B0AF1FF3A8346002BD0
:105A900000F04481002339460A22204600F01AFD16
:105AA000049B0746002B4DDC1E9B022B4ADD11E0B8
:105AB000C9D0079A1C331A4499441D441346C1E7C0
:105AC0000346F6E7B8F1000F36DC1E9B022B33DDF0
:105AD000CDF81080049B63B931460522204600F0C2
